:10082D007580FFC2A4D2A5C2A600D2A6E580332250
:1007BF008F147F051207AAC2A4C2A5D2A6851480E2
:0407CF0000C2A6229C
:1007D3008F147F051207AAD2A4C2A5D2A6851480BE
:0407E30000C2A62288
:0A0006007F011207BF7F050207AA61
:100665008F198B1A8A1B891CED7006E51924808069
:1006750004E51924C0FF1207BFAB1AAA1BA91C1257
:100685000299FF60101207D37401251CF51CE4358F
:060695001BF51B80E422AE
:10074B008F128B13ED7006E51224808004E51224C2
:0A075B00C0FF1207BFAF130207D35F
:100629007F381207BF7F051207AA7F381207BF7FDD
:10063900051207AA7F381207BF7F051207AA7F385C
:100649001207BF7F081207BF7F011207BF7F06127B
:0C06590007BF7F051207AA7F0C0207BF35
:03001000DFFE22EE
:1007AA00AE07AF061EEF600C7FF51200107FF51240
:0507BA00001080EE229A
:080016008F993099FDC2992277
:1007E700120299FF600C120016740129F9E43AFA13
:0307F70080EE226F
:10070E000223000002210000022700000241000027
:0C071E0002290000023F00000231000030
:10002600120629D290D2927F647E0012072DD2A8A2
:10003600D288D2AAD28AD2AFD28EE4F587759850EA
:10004600D2AC758920758BFD758DFDE52570FCE5B7
:10005600261470030202170470F1AF45EF3395E0E2
:10006600FEEF24D0FFEE34FFFE7C007D0A1202C4B0
:10007600AD46ED3395E0FCED24D0FDEC34FFCD2FFD
:10008600F50FED3EF50EAF33EF3395E0FEEF24D0DE
:10009600FFEE34FFFE7C007D0A1202C4AD34ED3360
:1000A60095E0FCED24D0FDEC34FFCD2FF511ED3EAF
:1000B600F510E4F525F526E52A646345297008F56B
:1000C60029F52AF523F52485452B85462C854A2DC9
:1000D600854B2EAE29AF2A7C007D0A1202D6EF246C
:1000E60030F52FAE29AF2A7C007D0A1202D6ED2408
:1000F60030F530AB397D017F0A12074BAB3A7D01F3
:100106007F0B12074BAB3B7D017F0C12074BAB3CC1
:100116007D017F0D12074BE52275F006A4FD7B00DD
:100126007A0079337517067FAE1204F7E4F53FF5CA
:1001360040AF4074332FF8E6FB7D0112074B0540B4
:10014600E5407002053FC39404E53F648094804017
:10015600E0E511650F7004E510650E6034E5247561
:10016600F006A4FD7B007A00792B7517067FAE1288
:10017600054A7F7D1207AA052AE52A700205290588
:1001860024E5247002052324FFF522E52334FFF538
:1001960021AE29AF2A7C007D641202D67E007F0A3A
:1001A600CFCDCFCECCCE1202D6EF2430FB7D017F51
:1001B6000712074BAE29AF2A7C007D0A1202D6ED44
:1001C6002430FB7D017F0812074B7B007A007943C0
:1001D6001207E7120361E4F53FF540AF4074432F81
:1001E600F8E6FBE4FD12074B0540E5407002053FCB
:1001F600C39409E53F6480948040E0D3E50F9432D0
:10020600E50E648094804002807CD292D2900200F7
:1002160051C292752500752601AF45EF3395E0FE74
:10022600EF24D0FFEE34FFFE7C007D0A1202C4AD3F
:1002360046ED3395E0FCED24D0FDEC34FFCD2FF5F3
:100246000FED3EF50E120361E4F53FF540AF407445
:10025600432FF8E6FBE4FD12074B0540E54070022C
:10026600053FC39409E53F6480948040E0E5262479
:1002760030FB7D01E4FF12074BD3E50F9432E50E08
:100286006480948040081206EEB290020051D2902B
:0302960002005112
:0300030002059A59
:10059A00C0E0C0F0C083C082C0D075D000C000C027
:1005AA0001C002C003C004C005C006C0077F0A120A
:1005BA0007AAE5262401FF752500EF5401F526D088
:1005CA0007D006D005D004D003D002D001D000D085
:0A05DA00D0D082D083D0F0D0E03200
:0300130002047C68
:10047C00C0E0C0F0C083C082C0D075D000C000C046
:10048C0001C002C003C004C005C006C0070532E5A8
:10049C003270020531C3E5229532CFE5219531CF7B
:1004AC0024FFF522EF34FFF521E52275F006A4FDBB
:1004BC007B007A0079397517067FAE1204F7E522B6
:1004CC002532CFE5213531CF2401F522E43FF5214A
:1004DC00D007D006D005D004D003D002D001D00074
:0B04EC00D0D0D082D083D0F0D0E0321E
:030023000207656C
:10076500C0D075D000C007309809AF997525008FA6
:0807750026C298D007D0D03253
:02072A00C1808C
:03001E00DFFE22E0
:10072D00D3EF9400EE940040147D6E7C00ED1D70AF
:0D073D00011CED4C70F7EF1F70E61E80E30D
:01074A00228C
:10077D00D2B67F0212001EC2B67F1E7E0012072D5A
:07078D00D2B67F1E02001E20
:1006C800E4FEFDEDC3940874809480501630B6FDA6
:1006D8007F0812001EEE25E0FE30B6010E20B6FDA2
:0506E8000D80E0AF06EB
:0106ED0022EA
:1003610012077D30B6030203EF30B6FD7F2812007D
:100371001E1206C88F121206C88F131206C88F14D8
:100381001206C8A9071206C88F177F1912001EE5A9
:10039100122513FFE433FE7C00EF2514FFEC3EFE33
:1003A100E92FFFEC3EFEEFB5170DECB50609AA12D9
:1003B100851315AB14891675435275443AEA75F0E5
:1003C1000A842430F545EA75F00A84E5F02430F515
:1003D1004675472075485475493AEB75F00A8424EF
:0E03E10030F54AEB75F00A84E5F02430F54B58
:0103EF0022EB
:1006EE00E4F512F5137F031207AAB2910513E51371
:0F06FE0070020512C39464E5126480948040E694
:01070D0022C9
:10079400D2A100D2A00000000000C2A1000000000D
:0607A40000C2A0000022CB
:1007FA00C2A100D2A00000000000D2A100000000A7
:01080A0022CB
:1005E400E4FEEEC39408748094805020A806EF08BB
:1005F4008002C333D8FC30E704D2A18002C2A10038
:10060400D2A00000000000C2A00E80D60000D2A13B
:100614000000D2A000000030A104C2008002D20079
:04062400C2A0000070
:0106280022AF
:10069B00E4FFD2A1FEEEC39408748094805019003D
:1006AB00C2A00000000000D2A00000EF25E0FF3048
:0C06BB00A1010F00000E80DDC2A00000B5
:0106C7002210
:10080B00C2A1000000D2A00000000000C2A00000A6
:01081B0022BA
:10081C00D2A1000000D2A00000000000C2A0000085
:01082C0022A9
:06054A008B148A158916CE
:100550001207941205E4200002C322AF051205E43D
:10056000200002C322E4F518E518C395175026AB06
:1005700014AA15A916120299FF1205E47F011207A9
:10058000AA200002C32274012516F516E43515F5DC
:0905900015051880D31207FAD3F7
:01059900223F
:0204F700AC0750
:1004F9001207941205E4200002C322AF051205E495
:10050900200002C322120794EC04FF1205E4200024
:1005190002C322E4FDE51714FFEDC39F5014120630
:100529009BEF1202B212080B740129F9E43AFA0D91
:1005390080E312069BEF1202B212081C1207FAD3CB
:01054900228F
:030000000203F008
:0C03F000787FE4F6D8FD75814B020437DD
:10029900BB010689828A83E0225002E722BBFE0263
:0902A900E32289828A83E4932296
:1002B200BB010689828A83F0225002F722BBFE012B
:0202C200F32225
:1002C400EF8DF0A4A8F0CF8CF0A428CE8DF0A42E4E
:0202D400FE2208
:1002D600C2D5EC30E709B2D5E4C39DFDE49CFCEE43
:1002E60030E715B2D5E4C39FFFE49EFE12030CC3AC
:1002F600E49DFDE49CFC800312030C30D507C3E4A7
:060306009FFFE49EFE22B1
:1003FC00020026E493A3F8E493A34003F68001F2F1
:10040C0008DFF48029E493A3F85407240CC8C33301
:10041C00C4540F4420C8834004F456800146F6DFD0
:10042C00E4800B010204081020408090070EE47E4B
:10043C00019360BCA3FF543F30E509541FFEE493C5
:10044C00A360010ECF54C025E060A840B8E493A38C
:10045C00FAE493A3F8E493A3C8C582C8CAC583CAB7
:10046C00F0A3C8C582C8CAC583CADFE9DEE780BE6F
:01072C0000CC
:10030C00BC000BBE0029EF8DF084FFADF022E4CCD5
:10031C00F875F008EF2FFFEE33FEEC33FCEE9DEC9E
:10032C00984005FCEE9DFE0FD5F0E9E4CEFD22EDE4
:10033C00F8F5F0EE8420D21CFEADF075F008EF2F2E
:10034C00FFED33FD4007985006D5F0F222C398FD1F
:05035C000FD5F0EA22BC
:00000001FF
